{
  "_format": "hh-sol-artifact-1",
  "contractName": "LoanBroker",
  "sourceName": "contracts/LoanBroker.sol",
  "abi": [
    {
      "inputs": [
        {
          "internalType": "address",
          "name": "_feeCollector",
          "type": "address"
        }
      ],
      "stateMutability": "nonpayable",
      "type": "constructor"
    },
    {
      "inputs": [],
      "name": "TransferFailed",
      "type": "error"
    },
    {
      "inputs": [],
      "name": "ApproveFailed",
      "type": "error"
    },
    {
      "inputs": [],
      "name": "SlippageExceeded",
      "type": "error"
    },
    {
      "inputs": [
        {
          "internalType": "address",
          "name": "account",
          "type": "address"
        }
      ],
      "name": "OwnableUnauthorizedAccount",
      "type": "error"
    },
    {
      "inputs": [
        {
          "internalType": "address",
          "name": "token",
          "type": "address"
        }
      ],
      "name": "SafeERC20FailedOperation",
      "type": "error"
    },
    {
      "anonymous": false,
      "inputs": [
        {
          "indexed": true,
          "internalType": "address",
          "name": "user",
          "type": "address"
        },
        {
          "indexed": true,
          "internalType": "address",
          "name": "adapter",
          "type": "address"
        },
        {
          "indexed": true,
          "internalType": "address",
          "name": "token",
          "type": "address"
        },
        {
          "indexed": false,
          "internalType": "uint256",
          "name": "amount",
          "type": "uint256"
        },
        {
          "indexed": false,
          "internalType": "uint256",
          "name": "fee",
          "type": "uint256"
        }
      ],
      "name": "LoanExecuted",
      "type": "event"
    },
    {
      "anonymous": false,
      "inputs": [
        {
          "indexed": true,
          "internalType": "address",
          "name": "previousOwner",
          "type": "address"
        },
        {
          "indexed": true,
          "internalType": "address",
          "name": "newOwner",
          "type": "address"
        }
      ],
      "name": "OwnershipTransferred",
      "type": "event"
    },
    {
      "inputs": [],
      "name": "FEE_BPS",
      "outputs": [
        {
          "internalType": "uint256",
          "name": "",
          "type": "uint256"
        }
      ],
      "stateMutability": "view",
      "type": "function"
    },
    {
      "inputs": [
        {
          "internalType": "address",
          "name": "token",
          "type": "address"
        }
      ],
      "name": "emergencyWithdraw",
      "outputs": [],
      "stateMutability": "nonpayable",
      "type": "function"
    },
    {
      "inputs": [
        {
          "internalType": "address",
          "name": "adapter",
          "type": "address"
        },
        {
          "internalType": "address",
          "name": "token",
          "type": "address"
        },
        {
          "internalType": "uint256",
          "name": "amount",
          "type": "uint256"
        }
      ],
      "name": "executeLoan",
      "outputs": [],
      "stateMutability": "payable",
      "type": "function"
    },
    {
      "inputs": [],
      "name": "feeCollector",
      "outputs": [
        {
          "internalType": "address",
          "name": "",
          "type": "address"
        }
      ],
      "stateMutability": "view",
      "type": "function"
    },
    {
      "inputs": [],
      "name": "owner",
      "outputs": [
        {
          "internalType": "address",
          "name": "",
          "type": "address"
        }
      ],
      "stateMutability": "view",
      "type": "function"
    },
    {
      "inputs": [],
      "name": "renounceOwnership",
      "outputs": [],
      "stateMutability": "nonpayable",
      "type": "function"
    },
    {
      "inputs": [
        {
          "internalType": "address",
          "name": "_feeCollector",
          "type": "address"
        }
      ],
      "name": "setFeeCollector",
      "outputs": [],
      "stateMutability": "nonpayable",
      "type": "function"
    },
    {
      "inputs": [
        {
          "internalType": "address",
          "name": "newOwner",
          "type": "address"
        }
      ],
      "name": "transferOwnership",
      "outputs": [],
      "stateMutability": "nonpayable",
      "type": "function"
    }
  ],
  "bytecode": "0x60806040523480156200001157600080fd5b506040516200140638038062001406833981810160405281019062000037919062000235565b33600073ffffffffffffffffffffffffffffffffffffffff168173ffffffffffffffffffffffffffffffffffffffff1603620000ad5760006040517f1e4fbdf7000000000000000000000000000000000000000000000000000000008152600401620000a4919062000278565b60405180910390fd5b620000be816200010760201b60201c565b5080600160006101000a81548173ffffffffffffffffffffffffffffffffffffffff021916908373ffffffffffffffffffffffffffffffffffffffff1602179055505062000295565b60008060009054906101000a900473ffffffffffffffffffffffffffffffffffffffff169050816000806101000a81548173ffffffffffffffffffffffffffffffffffffffff021916908373ffffffffffffffffffffffffffffffffffffffff1602179055508173ffffffffffffffffffffffffffffffffffffffff168173ffffffffffffffffffffffffffffffffffffffff167f8be0079c531659141344cd1fd0a4f28419497f9722a3daafe3b4186f6b6457e060405160405180910390a35050565b600080fd5b600073ffffffffffffffffffffffffffffffffffffffff82169050919050565b6000620001fd82620001d0565b9050919050565b6200020f81620001f0565b81146200021b57600080fd5b50565b6000815190506200022f8162000204565b92915050565b6000602082840312156200024e576200024d620001cb565b5b60006200025e848285016200021e565b91505092915050565b6200027281620001f0565b82525050565b60006020820190506200028f600083018462000267565b92915050565b61116180620002a56000396000f3fe60806040526004361061007b5760003560e01c8063a42dce801161004e578063a42dce8014610107578063bf333f2c14610130578063c415b95c1461015b578063f2fde38b146101865761007b565b80634fee4240146100805780636ff1c9bc1461009c578063715018a6146100c55780638da5cb5b146100dc575b600080fd5b61009a60048036038101906100959190610cea565b6101af565b005b3480156100a857600080fd5b506100c360048036038101906100be9190610d3d565b610582565b005b3480156100d157600080fd5b506100da6106b2565b005b3480156100e857600080fd5b506100f16106c6565b6040516100fe9190610d79565b60405180910390f35b34801561011357600080fd5b5061012e60048036038101906101299190610d3d565b6106ef565b005b34801561013c57600080fd5b5061014561073b565b6040516101529190610da3565b60405180910390f35b34801561016757600080fd5b50610170610740565b60405161017d9190610d79565b60405180910390f35b34801561019257600080fd5b506101ad60048036038101906101a89190610d3d565b610766565b005b600073ffffffffffffffffffffffffffffffffffffffff168273ffffffffffffffffffffffffffffffffffffffff16036103a957803414610225576040517f08c379a000000000000000000000000000000000000000000000000000000000815260040161021c90610e1b565b60405180910390fd5b60006127106064836102379190610e6a565b6102419190610edb565b9050600081836102519190610f0c565b90506000600160009054906101000a900473ffffffffffffffffffffffffffffffffffffffff1673ffffffffffffffffffffffffffffffffffffffff168360405161029b90610f71565b60006040518083038185875af1925050503d80600081146102d8576040519150601f19603f3d011682016040523d82523d6000602084013e6102dd565b606091505b5050905080610321576040517f08c379a000000000000000000000000000000000000000000000000000000000815260040161031890610fd2565b60405180910390fd5b8573ffffffffffffffffffffffffffffffffffffffff16633b89bb868387856040518463ffffffff1660e01b815260040161035d929190610ff2565b60206040518083038185885af115801561037b573d6000803e3d6000fd5b50505050506040513d601f19601f820116820180604052508101906103a09190611030565b505050506104fe565b60006127106064836103bb9190610e6a565b6103c59190610edb565b9050600081836103d59190610f0c565b90506104043330858773ffffffffffffffffffffffffffffffffffffffff166107ec909392919063ffffffff16565b610451600160009054906101000a900473ffffffffffffffffffffffffffffffffffffffff16838673ffffffffffffffffffffffffffffffffffffffff1661086e9092919063ffffffff16565b61047c85828673ffffffffffffffffffffffffffffffffffffffff166108ed9092919063ffffffff16565b8473ffffffffffffffffffffffffffffffffffffffff16633b89bb8685836040518363ffffffff1660e01b81526004016104b7929190610ff2565b6020604051808303816000875af11580156104d6573d6000803e3d6000fd5b505050506040513d601f19601f820116820180604052508101906104fa9190611030565b5050505b8173ffffffffffffffffffffffffffffffffffffffff168373ffffffffffffffffffffffffffffffffffffffff163373ffffffffffffffffffffffffffffffffffffffff167f35e48ec5d3d9e12b08a3c303ffd9ea69f4b60bedf0dae8a9a3cbf98aacc998c484606460405161057592919061105d565b60405180910390a4505050565b61058a6109fc565b600073ffffffffffffffffffffffffffffffffffffffff168173ffffffffffffffffffffffffffffffffffffffff160361060a573373ffffffffffffffffffffffffffffffffffffffff166108fc479081150290604051600060405180830381858888f19350505050158015610604573d6000803e3d6000fd5b506106af565b6106ae338273ffffffffffffffffffffffffffffffffffffffff166370a08231306040518263ffffffff1660e01b81526004016106479190610d79565b602060405180830381865afa158015610664573d6000803e3d6000fd5b505050506040513d601f19601f820116820180604052508101906106889190611030565b8373ffffffffffffffffffffffffffffffffffffffff1661086e9092919063ffffffff16565b5b50565b6106ba6109fc565b6106c46000610a83565b565b60008060009054906101000a900473ffffffffffffffffffffffffffffffffffffffff16905090565b6106f76109fc565b80600160006101000a81548173ffffffffffffffffffffffffffffffffffffffff021916908373ffffffffffffffffffffffffffffffffffffffff16021790555050565b606481565b600160009054906101000a900473ffffffffffffffffffffffffffffffffffffffff1681565b61076e6109fc565b600073ffffffffffffffffffffffffffffffffffffffff168173ffffffffffffffffffffffffffffffffffffffff16036107e05760006040517f1e4fbdf70000000000000000000000000000000000000000000000000000000081526004016107d79190610d79565b60405180910390fd5b6107e981610a83565b50565b610868848573ffffffffffffffffffffffffffffffffffffffff166323b872dd86868660405160240161082193929190611086565b604051602081830303815290604052915060e01b6020820180517bffffffffffffffffffffffffffffffffffffffffffffffffffffffff8381831617835250505050610b47565b50505050565b6108e8838473ffffffffffffffffffffffffffffffffffffffff1663a9059cbb85856040516024016108a1929190610ff2565b604051602081830303815290604052915060e01b6020820180517bffffffffffffffffffffffffffffffffffffffffffffffffffffffff8381831617835250505050610b47565b505050565b60008373ffffffffffffffffffffffffffffffffffffffff1663095ea7b3848460405160240161091e929190610ff2565b604051602081830303815290604052915060e01b6020820180517bffffffffffffffffffffffffffffffffffffffffffffffffffffffff8381831617835250505050905061096c8482610be9565b6109f6576109eb848573ffffffffffffffffffffffffffffffffffffffff1663095ea7b38660006040516024016109a4929190611102565b604051602081830303815290604052915060e01b6020820180517bffffffffffffffffffffffffffffffffffffffffffffffffffffffff8381831617835250505050610b47565b6109f58482610b47565b5b50505050565b610a04610c49565b73ffffffffffffffffffffffffffffffffffffffff16610a226106c6565b73ffffffffffffffffffffffffffffffffffffffff1614610a8157610a45610c49565b6040517f118cdaa7000000000000000000000000000000000000000000000000000000008152600401610a789190610d79565b60405180910390fd5b565b60008060009054906101000a900473ffffffffffffffffffffffffffffffffffffffff169050816000806101000a81548173ffffffffffffffffffffffffffffffffffffffff021916908373ffffffffffffffffffffffffffffffffffffffff1602179055508173ffffffffffffffffffffffffffffffffffffffff168173ffffffffffffffffffffffffffffffffffffffff167f8be0079c531659141344cd1fd0a4f28419497f9722a3daafe3b4186f6b6457e060405160405180910390a35050565b600080602060008451602086016000885af180610b6a576040513d6000823e3d81fd5b3d925060005191505060008214610b85576001811415610ba1565b60008473ffffffffffffffffffffffffffffffffffffffff163b145b15610be357836040517f5274afe7000000000000000000000000000000000000000000000000000000008152600401610bda9190610d79565b60405180910390fd5b50505050565b6000806000806020600086516020880160008a5af192503d91506000519050828015610c3e575060008214610c215760018114610c3d565b60008673ffffffffffffffffffffffffffffffffffffffff163b115b5b935050505092915050565b600033905090565b600080fd5b600073ffffffffffffffffffffffffffffffffffffffff82169050919050565b6000610c8182610c56565b9050919050565b610c9181610c76565b8114610c9c57600080fd5b50565b600081359050610cae81610c88565b92915050565b6000819050919050565b610cc781610cb4565b8114610cd257600080fd5b50565b600081359050610ce481610cbe565b92915050565b600080600060608486031215610d0357610d02610c51565b5b6000610d1186828701610c9f565b9350506020610d2286828701610c9f565b9250506040610d3386828701610cd5565b9150509250925092565b600060208284031215610d5357610d52610c51565b5b6000610d6184828501610c9f565b91505092915050565b610d7381610c76565b82525050565b6000602082019050610d8e6000830184610d6a565b92915050565b610d9d81610cb4565b82525050565b6000602082019050610db86000830184610d94565b92915050565b600082825260208201905092915050565b7f496e636f72726563742045544820616d6f756e74000000000000000000000000600082015250565b6000610e05601483610dbe565b9150610e1082610dcf565b602082019050919050565b60006020820190508181036000830152610e3481610df8565b9050919050565b7f4e487b7100000000000000000000000000000000000000000000000000000000600052601160045260246000fd5b6000610e7582610cb4565b9150610e8083610cb4565b9250828202610e8e81610cb4565b91508282048414831517610ea557610ea4610e3b565b5b5092915050565b7f4e487b7100000000000000000000000000000000000000000000000000000000600052601260045260246000fd5b6000610ee682610cb4565b9150610ef183610cb4565b925082610f0157610f00610eac565b5b828204905092915050565b6000610f1782610cb4565b9150610f2283610cb4565b9250828203905081811115610f3a57610f39610e3b565b5b92915050565b600081905092915050565b50565b6000610f5b600083610f40565b9150610f6682610f4b565b600082019050919050565b6000610f7c82610f4e565b9150819050919050565b7f466565207472616e73666572206661696c656400000000000000000000000000600082015250565b6000610fbc601383610dbe565b9150610fc782610f86565b602082019050919050565b60006020820190508181036000830152610feb81610faf565b9050919050565b60006040820190506110076000830185610d6a565b6110146020830184610d94565b9392505050565b60008151905061102a81610cbe565b92915050565b60006020828403121561104657611045610c51565b5b60006110548482850161101b565b91505092915050565b60006040820190506110726000830185610d94565b61107f6020830184610d94565b9392505050565b600060608201905061109b6000830186610d6a565b6110a86020830185610d6a565b6110b56040830184610d94565b949350505050565b6000819050919050565b6000819050919050565b60006110ec6110e76110e2846110bd565b6110c7565b610cb4565b9050919050565b6110fc816110d1565b82525050565b60006040820190506111176000830185610d6a565b61112460208301846110f3565b939250505056fea2646970667358221220de105dacbcb4b9fdbbd8cafbfa89614a368c99ff1ba81feb60a778ef1a18940a64736f6c63430008140033",
  "linkReferences": {},
  "deployedLinkReferences": {}
}